:020000001429C1
:10000800F200030EF3000B1810200B191B20F30E3F
:100018008300F20E720E090003138312061C850A70
:10002800861C85030B1005080021870008000313B0
:100038008312D93081000B11F00A7008323C031D7D
:0E0048000800F001F10A71080021880008008C
:100200008A010A140F3982073F3406345B344F34B5
:1002100066346D347D3407347F346F3477347C3406
:1002200039345E347934713437211A2131213E2139
:10023000472119290317831688018901031383169F
:10024000F030850006148614870188018113151487
:100250009514031383128501003000218700880064
:1002600008008B178B150B108B160B11080003134E
:1002700083160F178F120F120F1408000313831623
:10028000161496140313831206080B1008000313A8
:100290008316811281110115811401100313831239
:0C02A00003138312D93081000B110800F9
:04400E00C430FF3F7C
:00000001FF
